:020000040800F2
:10000000200700204D0200086F150008BD140008ED
:100010006D1500085F0400081119000800000000B9
:100020000000000000000000000000007315000840
:100030006104000800000000711500087515000833
:1000400067020008670200086702000867020008EC
:1000500067020008670200086702000867020008DC
:1000600067020008670200086702000867020008CC
:1000700067020008670200086702000867020008BC
:1000800067020008670200086702000867020008AC
:10009000670200086702000867020008670200089C
:1000A000670200086702000867020008670200088C
:1000B000670200086702000867020008670200087C
:1000C000670200086702000867020008670200086C
:1000D000670200086702000867020008670200085C
:1000E000670200086702000867020008670200084C
:1000F000670200086702000867020008670200083C
:10010000670200086702000867020008670200082B
:10011000670200086702000867020008670200081B
:10012000670200086702000867020008670200080B
:1001300067020008670200086702000867020008FB
:1001400067020008670200086702000867020008EB
:100150006702000867020008670200080519000826
:1001600067020008670200086702000867020008CB
:10017000670200086702000867020008000000002C
:100180006702000867020008670200081D160008E1
:10019000670200086702000867020008670200089B
:1001A00000000000000000006702000800F002F8F4
:1001B00000F03CF80AA090E8000C82448344AAF1C5
:1001C0000107DA4501D100F031F8AFF2090EBAE8C3
:1001D0000F0013F0010F18BFFB1A43F0010318477B
:1001E0002033000040330000103A24BF78C878C1A3
:1001F000FAD8520724BF30C830C144BF04680C602D
:10020000704700000023002400250026103A28BF74
:1002100078C1FBD8520728BF30C148BF0B60704778
:100220001FB503F09BF81FBD10B510BD00F0E2F83C
:100230001146FFF7F5FF02F09BFA00F000F903B456
:10024000FFF7F2FF03BC00F003F900000948804704
:1002500009480047FEE7FEE7FEE7FEE7FEE7FEE7A8
:10026000FEE7FEE7FEE7FEE704480549054A064BC0
:10027000704700000D160008AD01000820010020A5
:1002800020070020200300202003002053EA020C56
:1002900000F069802DE9F04B4FF00006002B1FBFE6
:1002A000B3FA83F503FA05F424FA05F65E4012BFAB
:1002B0001643B2FA82F502FA05F4C5F120051EBF15
:1002C00022FA05FC44EA0C04203556EA044C4FEAB5
:1002D000144418BF641C4FF000084FF0000990420E
:1002E00071EB030C39D3002919BFB1FA81F701FA78
:1002F00007F6B0FA80F700FA07F6C7F120071EBF2D
:1003000020FA07FC46EA0C062037B6FBF4FCA7EB04
:100310000507103F07F01F0BCBF120060CFA0BFB73
:100320002CFA06F644BFB3460026202FA4BF5E4633
:100330004FF0000B5BEA060C08BF4FF0010B19EB06
:100340000B09ABFB027C48EB0608C01B06FB02CC8A
:100350000BFB03CC71EB0C01C1E70B460246414697
:100360004846BDE8F08B13B54FF000004FF0000198
:10037000AFF30080BDE81C4070474FF0000200B5AD
:10038000134694469646203922BFA0E80C50A0E8B8
:100390000C50B1F12001BFF4F7AF090728BFA0E866
:1003A0000C5048BF0CC05DF804EB890028BF40F832
:1003B000042B08BF704748BF20F8022B11F0804F74
:1003C00018BF00F8012B704770477047704710B591
:1003D00000F008F8006810BD10B5044600F002F8FF
:1003E000046010BD00487047BC0000200048704702
:1003F000BC0000207546FFF7F9FFAE4605006946D0
:10040000534620F00700854618B020B5FFF72CFFB3
:10041000BDE820404FF000064FF000074FF0000805
:100420004FF0000B21F00701AC46ACE8C009ACE886
:10043000C009ACE8C009ACE8C0098D46704710B5EA
:100440000446AFF300802046BDE81040FFF7F7BE3A
:1004500001491820ABBEFEE7260002007047FEE708
:10046000704772B6FEE72DE9F0410446876D00F053
:100470006FF9064694F835000025022806D0802042
:10048000606584F834500120BDE8F081206801687F
:1004900021F0160101602068416921F0800141616D
:1004A000206C08B9A06C20B12068016821F0080117
:1004B00001602068016821F0010101600CE000F09A
:1004C00047F9801B052807D920206065032084F8A0
:1004D000350084F83450D7E720680068C007EED1B3
:1004E00094F85C103F208840B860012084F8350003
:1004F00084F834500020C7E790F83510022903D063
:100500008021416501207047052180F83510006881
:10051000016821F001010160002070472DE9F84FCA
:10052000DFF8F8A1002201240AF1040B03254FF0A3
:100530000F090BF1040E00BF0B6804FA02F63340FA
:10054000B34270D10F7907F00307012F01D0022FBA
:1005500016D187684FEA420805FA08FC27EA0C071B
:10056000D1F80CC00CFA08FC4CEA070CC0F808C023
:100570004768B7430E79C6F3001696403E4346607F
:100580000E79F643B6070AD0C7684FEA420C05FA5F
:100590000CF6B7438E6806FA0CF63E43C6600E7939
:1005A00006F00306022E10D1D60800EB8608D8F814
:1005B000206057074FEAD76C09FA0CF7BE430F6962
:1005C00007FA0CF73743C8F8207006684FEA420C68
:1005D00005FA0CF7BE430F7907F0030707FA0CF78B
:1005E000374307604E6816F4403F1CD04C4E3768C6
:1005F00047F480473760366822F0030706F48046E8
:100600000096484E07EB060CDCF8086897073F0F8A
:1006100009FA07F826EA0806DFF80C81404503D1FD
:100620004FF0000841E072E0DFF80081404502D160
:100630004FF0010839E0DFF8F880404502D14FF073
:10064000020832E0DFF8EC80404502D14FF00308A9
:100650002BE0DFF8E480404502D14FF0040824E0AD
:10066000DFF8D880404502D14FF005081DE0DFF8E3
:10067000D080404502D14FF0060816E0DFF8C48074
:10068000404502D14FF007080FE0DFF8BC8040453D
:1006900002D14FF0080808E0DFF8B080404502D1F1
:1006A0004FF0090801E04FF00A0808FA07F848EA95
:1006B0000608CCF80888DAF800605746D1F804C07C
:1006C0009E435FEACC3C00D51E433E60DBF80060F1
:1006D0005F46D1F804C09E435FEA8C3C00D51E43C0
:1006E0003E60DEF800607746D1F804C09E435FEAC2
:1006F000CC2C00D51E433E60084F0C373E68D1F825
:1007000004C09E435FEA8C2C00D51E433E60521C01
:10071000102AFFF411AFBDE8F88F0000003C014043
:100720004438024000300140000002400004024012
:1007300000080240000C0240001002400014024079
:1007400000180240001C0240002002400024024029
:100750000148806870470000180000200248816846
:100760000278114481607047180000200B4810B5D2
:10077000016841F400710160016841F48061016029
:10078000016841F480710160032000F06FF80F20D0
:1007900000F006F800F024F8002010BD003C0240F4
:1007A00070B50D4D04464FF47A712878B1FBF0F026
:1007B0000A490968B1FBF0F000F00CFB48B9102CB5
:1007C00007D200222146501E00F030F800206C6055
:1007D00070BD012070BD0000180000202400002022
:1007E0000A4808B5016841F480410160006800F4DE
:1007F000804000900548001F016841F08051016071
:10080000006800F08050009008BD000044380240AD
:10081000002809DB00F01F020121914040098000FF
:1008200000F1E020C0F8001170470000F0B40E4B5A
:100830001B680C46C3F30223C3F10705042D00D93E
:100840000425191D072901D2002300E0DB1E012623
:1008500006FA05F1491E214099409E40761E164039
:100860003143F0BC01F06DB80CED00E0064900F03A
:10087000070208684FF6FF03184040EA0220034AC7
:1008800010430860704700000CED00E00000FA051E
:100890002DE9F0470E46050065D0DFF81481D8F841
:1008A0000000F7B200F00F00B04207D288F80070E5
:1008B000D8F8000000F00F00B04254D128683D4C39
:1008C000810712D5400703D5206840F4E05020602E
:1008D0002878000703D5206840F460402060206835
:1008E000A96820F0F000084320602878C0072DD0C8
:1008F000304968680839012812D0022813D003282B
:1009000011D00968890700292DDA216821F0030137
:1009100001432160FFF71CFF814641F2883A0EE057
:1009200009688903EFE709688901ECE7FFF710FF21
:10093000A0EB0901514502D90320BDE8F0872068EA
:10094000696800F00C00B0EB810FEFD1D8F800100F
:10095000404601F00F01B14207D90770006800F06E
:100960000F00B04201D00120E7E72878400705D505
:100970002068E96820F4E0500843206028780007E8
:1009800006D52068296920F4604040EAC100206053
:1009900000F038F82168084AC1F30311515CC840DF
:1009A0000649086006480068FFF7FAFE0020C4E721
:1009B000003C024008380240563400082400002061
:1009C0001C0000200448054900680968044AC1F376
:1009D0008221515CC8407047240000200838024042
:1009E000663400080448054900680968044AC1F3F0
:1009F0004231515CC8407047240000200838024052
:100A000066340008154810B5006810F00C02144850
:100A100013D01449042A0FD0082A0ED10F4C241FDA
:100A20002268236802F03F025B0207D52068C0F30A
:100A30008810A0FB010106E0084610BD2168C1F343
:100A40008811A1FB00010023FFF720FC2168C1F3FE
:100A50000141491C4900B0FBF1F010BD08380240CB
:100A60000024F40040787D012DE9F84F04006ED099
:100A70002078DFF84C93C007A9F104054AD009F1AA
:100A800004000168C1F38101012908D00068C0F3A6
:100A9000810002280AD1D9F80000400206D5286852
:100AA000800337D560680028E1D033E06068B0F596
:100AB000803F10D0B0F5A02F286810D020F48030EF
:100AC0002860286820F4802028606068A8B1FFF7BB
:100AD0003FFE06460DE0286840F48030F4E740F41D
:100AE00080202860F7E700BFFFF732FE801B6428F4
:100AF00073D828688003F7D50CE0FFF729FE064677
:100B000005E000BFFFF724FE801B6428F0D82868AA
:100B10008003F7D42078DFF8AC8280074FF0000A1A
:100B20003ED5A748001D016811F00C0F08D00068E1
:100B3000C0F3810002280BD1D9F80000400207D48D
:100B40002868800716D5E068012800D112E033E15B
:100B5000E068B8B10120C8F80000FFF7F9FD0646CB
:100B600005E000BFFFF7F4FD801B0228C0D828680D
:100B70008007F7D52868216920F0F80040EAC10015
:100B800028600DE0C8F800A0FFF7E2FD064604E08B
:100B9000FFF7DEFD801B02281FD828688007F7D4E6
:100BA0002078000722D5864F87486169703771B178
:100BB00001210160FFF7CCFD064604E0FFF7C8FD08
:100BC000801B022809D838688007F7D50EE0C0F8E6
:100BD00000A0FFF7BDFD064605E082E0FFF7B8FD87
:100BE000801B02287DD838688007F7D4207840071A
:100BF00068D5DFF8CCB100270BF13C0BDBF8000027
:100C0000C0000BD4DBF8001041F08051CBF800108D
:100C1000DBF80000012700F0805000906B4E306838
:100C2000C00510D4306840F480703060FFF790FD4C
:100C3000009005E0FFF78CFD0099401A022850D87B
:100C40003068C005F6D55E4EA0686C3601280FD01E
:100C50000528306810D020F001003060306820F0A6
:100C600004003060A068B8B1FFF772FD00900FE09B
:100C7000306840F00100F4E740F004003060F7E72E
:100C8000FFF766FD0099411A41F28830814266D82B
:100C900030688007F4D50EE0FFF75AFD009007E0BA
:100CA000FFF756FD0099411A41F28830814256D82B
:100CB00030688007F4D42FB1DBF8001021F08051A8
:100CC000CBF80010A069C8B33D49091D0968C1F3FC
:100CD000810102294AD00228504607D0C8F8600096
:100CE00000E03CE0FFF734FD04463BE04746C8F82F
:100CF0006000FFF72DFD064605E000BFFFF728FD69
:100D0000801B02282BD828688001F7D4D4E907017A
:100D10000843A16A2E4A490802EB0141626A41EA8E
:100D20008211084394F82C1040EA0161C9F80010C0
:100D300001203866FFF70CFD044606E03EE000BFE8
:100D4000FFF706FD001B022809D828688001F7D5A7
:100D500034E000BFFFF7FCFC001B022802D903208F
:100D6000BDE8F88F28688001F4D427E00128F7D087
:100D7000D9F80000E26900F4800191421CD1226A96
:100D800000F03F01914217D147F6C071626A0140FD
:100D9000B1EB821F10D1A26A4FF0FF3300F4403153
:100DA00003EB5202B1EB024F06D194F82C1000F085
:100DB0007060B0EB016F01D00120D1E70020CFE7D8
:100DC0000438024000004742800E47420070004055
:100DD0000000FFFF10B5401EB0F1807F01D301205D
:100DE00010BD4FF0E02460610F21601700F0A9FDF5
:100DF0000020A06107202061002010BD70477047CF
:100E0000F8B5016804460868CA684B6910F00F0F0E
:100E10004FF000055AD003F0010602F490773743F3
:100E200065D0C10705D0D10503D5216C41F0010182
:100E30002164410705D5D90703D0216C41F0020197
:100E40002164810705D5D90703D0216C41F0040145
:100E50002164010707D502F02001314303D0216C42
:100E600041F008012164216C00293BD0800604D5A3
:100E7000900602D5204600F006FC20684069216CEF
:100E8000C0F3801001F00801014320462BD000F090
:100E9000D3FB20684069400621D52068143050E813
:100EA000001F21F0400140E80012002AF5D1A06B9C
:100EB000A8B16C490165A06BFFF71EFB002811D09B
:100EC000A06B016D01B0BDE8F040084783060ED568
:100ED00093060CD52046BDE8F84000F0D4BB204670
:100EE000FFF78DFFF8BDFFF78AFF2564F8BD266B7D
:100EF0002023012E79D1C60677D5D60675D5086888
:100F0000486800904869400640D5A16B0868406871
:100F10000004000CEAD0A28D8242E7D9E085C869BE
:100F2000B0F5807F2DD020680C3050E8001F21F4F0
:100F3000807140E80012002AF5D12068143050E892
:100F4000001F21F0010140E80012002AF5D12068BD
:100F5000143050E8001F21F0400140E80012002A40
:100F6000F5D184F83E30256320680C3050E8001F2E
:100F700021F0100140E80012002AF5D1A06BFFF724
:100F800072FAA08DE18D401A81B229E0A08DE18D29
:100F9000401A81B2E08D0028A8D00029A6D0206890
:100FA0000C3050E8002F22F4907240E80026002E0A
:100FB000F5D12068143050E8002F22F0010240E8FB
:100FC0000026002EF5D184F83E30256320680C30D1
:100FD00050E8002F22F0100240E80023002BF5D14A
:100FE0002046FFF70BFFF8BDFFE705062BD51506DA
:100FF00029D594F83D002128F5D1A068B0F5805F8F
:1010000001D12069B0B1206A411C216221680078B9
:101010004860E08C401E0004000CE084E3D12068AE
:10102000C16821F08001C1602068C16841F04001C1
:10103000C160D8E7206A0088C0F308004860206AD1
:10104000801C2062E5E74006CDD55006CBD5CA68A6
:10105000204622F04002CA6084F83D3000F02DFAAC
:10106000C1E700002916000870B5040004D094F808
:101070003D00002510B106E0012070BD84F83C5011
:10108000204600F023F8242084F83D002068C16841
:1010900021F40051C160204600F056FB2068016930
:1010A00021F4904101612068416921F02A014161E8
:1010B0002068C16841F40051C1602564202084F893
:1010C0003D0084F83E00002070BD000030B587B0C0
:1010D000044614216846FFF750F9294D2268294833
:1010E000022101230824AA4221D1264A1032156880
:1010F00045F000451560126802F000420592026852
:1011000042F010020260006800F010000590032019
:101110008DE80B00CDE9031469461B48FFF7FEF983
:10112000002211465320FFF781FB532024E0174D86
:10113000AA4223D1134A1432156845F020051560E0
:10114000126802F020020592026842F0400202603A
:10115000006800F0400005904FF484408DE80B00DB
:10116000CDE9031469460A48FFF7D8F90022114671
:101170004720FFF75BFB4720FFF74AFB07B030BD76
:10118000007C004030380240001002400014014052
:101190000018024090F83E30202B0ED159B152B1C8
:1011A00090F83C30012B08D0012380F83C3000231C
:1011B000036300F04FBB012070470220704700001E
:1011C0002DE9F04781492DED068B006888427CD1DE
:1011D0007F4C804B4FF0000AA07855280AD0217828
:1011E0005854491CCAB22146227049780B2A0DD0A6
:1011F0000844DFE0C3F800A0C3F804A0A3F808A0E7
:1012000083F80AA0187001212170D3E08142DED159
:101210006F4E587810365328D9D1988801F058FD70
:101220009FED6D1B53EC112B01F0A2FD9FED6C8B1C
:1012300053EC182B01F09CFD41EC100B53EC182BD8
:1012400084ED020B01F092FE0DD294ED020B53ECF3
:10125000102B9FED650B51EC100B01F095FFC4E9CD
:1012600002012D2000E02B2030700025B0469FEDBC
:10127000608B9FED619B00BFC5F1020001F011FD85
:101280008946064649EC110BB0EE480AF0EE680AB2
:1012900000F06AFB53EC102B94ED020B51EC100B99
:1012A00001F07AFB53EC192B01F0BAFA01F0CCFCF7
:1012B000C7B208EB050049EC116B4770B0EE480A65
:1012C000F0EE680A00F050FB00E074E0B0EE401A67
:1012D000F0EE601AB0EE41AAF0EE61AAA7F130007C
:1012E00001F0DFFC53EC1A2B01F042FD94ED021BE0
:1012F00053EC112B01F070FE6D1C032DC4E90201AB
:10130000BADB04254FEA0809C5F1030001F0C9FC66
:101310008846064648EC110BB0EE480AF0EE680A23
:1013200000F022FB53EC102B94ED020B51EC100B50
:1013300001F032FB53EC192B01F072FA01F084FC3E
:10134000C7B209EB050048EC116B4770B0EE480AD4
:10135000F0EE680A00F008FBB0EE401AF0EE601AFA
:10136000B0EE41AAF0EE61AAA7F1300001F099FCBD
:1013700053EC1A2B01F0FCFC94ED021B53EC112BE7
:1013800001F02AFE6D1C072DC4E90201BCDB1049E7
:101390004FF6FF752B4607221031194800F034F83C
:1013A0000B492B460222C91C154800F02DF8504667
:1013B00084F800A0607006490122BDEC068B891CF0
:1013C000BDE8F0470F48FFF7E5BE000000140140FC
:1013D0000000002028000020000000000000003F66
:1013E00000000000008066400000000000807640A1
:1013F0000000000000002440000000000000484001
:1014000034000020780000202DE9F843044690F8CD
:101410003D001F4616460D4620284CD1C5B1BEB131
:1014200094F83C00012846D0012084F83C004FF09D
:101430000008C4F84080212084F83D00FFF788F9B7
:10144000A6848146E684A068B0F5805F03D004E0FE
:101450000120BDE8F883206928B12E465FF0000521
:1014600084F83C800EE00026FAE78021204600F058
:101470000CFAA0B9AEB116F8010B21684860E08CF7
:10148000401EE084E08C4B464FF00002009700289D
:10149000EBD14FF04001204600F0F7F930B10320C6
:1014A000D7E735F8020BC0F30800E6E7202084F800
:1014B0003D000020CDE70220CBE77047FEE70000AB
:1014C0000D4808B5016841F010010160016801F0A4
:1014D00010010091016841F040010160016801F0D4
:1014E00040010091016841F004010160006800F0D2
:1014F0000400009008BD0000303802400C4810B5D0
:101500000A4901604FF4E1314160002181600C2201
:10151000C160C0E904128161C161FFF7A5FD002827
:1015200003D0BDE81040FEF79CBF10BD007C00401A
:10153000340000200C4810B50A4901604FF4E13135
:101540004160002181600C22C160C0E90412816108
:10155000C161FFF789FD002803D0BDE81040FEF708
:1015600080BF10BD0014014078000020FEE7FEE7B8
:1015700070477047FFF7F2B830B593B03021684636
:10158000FEF7FBFE14210CA8FEF7F7FE1D48002411
:10159000016841F080510160006800F080501190B6
:1015A0001948016821F4404141F48041016000681C
:1015B000022500F440401190012003901020049077
:1015C000009506950820CDE907404020CDE90905A2
:1015D00004200B906846FFF747FA08B172B6FEE7A1
:1015E0000F20CDE90C054FF48050CDE90E400221CB
:1015F0000CA81094FFF74CF9002801D072B6FEE752
:1016000013B030BD4038024000700040024801680D
:1016100041F470010160704788ED00E00148FFF778
:10162000EFBB00003400002010B5806B0021C185A5
:10163000C184FFF7E4FB10BD01680C3151E8002FB5
:1016400022F4907241E80023002BF5D10168143197
:1016500051E8002F22F0010241E80023002BF5D1D0
:10166000016B012909D101680C3151E8002F22F0EA
:10167000100241E80023002BF5D1202180F83E1014
:1016800000210163704708B590F83E10222901D06F
:10169000022008BD82684FF480539A4201D101694B
:1016A00021B1816A9A421BD04AB10AE00268816A7C
:1016B0005268C2F308020A80816A891C08E0026944
:1016C00072B10268526802F07F020A70816A491C96
:1016D0008162C18D491E0904090CC18503D019E03E
:1016E00002685268F1E70168CA6822F02002CA6005
:1016F0000168CA6822F48072CA6001684A6922F0EF
:1017000001024A61202180F83E10016B012903D0BB
:10171000FFF756FD002008BD0021016301680C3170
:1017200051E8002F22F0100241E80023002BF5D1F0
:1017300001680A68D20602D50A6849680091818D5D
:10174000FFF75CFBE6E7000070B50446006801693E
:10175000E26821F44051114301612169A068E26906
:1017600008436169114308432168CA6849F20C6360
:101770009A430243CA6020684169A26921F440711A
:101780001143416131492068884202D03049884282
:1017900002D1FFF727F901E0FFF714F9E26900230E
:1017A000192164253226B2F5004F626828D0A0FBCB
:1017B0000101930F9200FEF769FD0146B0FBF5F0C1
:1017C0006FF01802504301EB800006EB0010B0FBF5
:1017D000F5F000F0F002B1FBF5F002EB0012B1FB06
:1017E000F5F06FF01803584301EB800006EB001092
:1017F000B0FBF5F000F00F0021681044886070BD68
:10180000A0FB010192185B41FEF740FD0146B0FBD1
:10181000F5F00201B1FBF5F06FF01803584301EB4E
:10182000800006EBC000B0FBF5F000F0F80002EB22
:101830004002B1FBF5F0584301EB800006EBC0001D
:10184000B0FBF5F000F00700D6E700000010014003
:101850000014014081628285C28500210164222238
:1018600080F83E2080F83C100168CA6842F480721B
:10187000CA6001684A6942F001024A610068C168B1
:1018800041F02001C160002070472DE9F0419846E9
:1018900017460E460446069D27E0681C25D02DB14C
:1018A000FEF756FFA0EB0800A8421ED920680C30B6
:1018B00050E8001F21F4D07140E80012002AF5D151
:1018C0002068143050E8001F21F0010140E80012A8
:1018D000002AF5D1202084F83D0084F83E00002045
:1018E00084F83C000320BDE8F0812068006836EAF7
:1018F000000004D00020B842CFD00020F3E7012040
:10190000F9E700000148FFF77BBA000078000020EB
:10191000FEE703B401984100009850EAC12018BFC7
:1019200004204A0D18BF40F0010040F2FF72B2EBF4
:10193000515F08BF40F00200012808BF052002B037
:1019400070470907090E002804DB00F1E02080F849
:101950000014704700F00F0000F1E02080F8141D23
:1019600070470000000000002DE9F04D2DED040B44
:101970002DED0E8B96B0DDE92550279CDDF890A06B
:1019800025F0004624F00048BAF1000F14BF0121F1
:10199000002101EB4502FC4953184A1093422AD317
:1019A000002814BF0123002303EB44030B44F74931
:1019B0008B4220D358EA00019FEDF59B76D0DFF8EB
:1019C000D8B35D4503D1BAF1000F05D188E0BAF173
:1019D000000F08BF002100D0012101EB450111F5E6
:1019E000001F08D8002814BF0121002101EB440189
:1019F00011F5001F0BD99DED261B9DED240B16B094
:101A0000BDEC0E8B04B0BDE8F04D00F069BE0027C0
:101A1000002DBCBFE149884521DAE1498845A8BFCE
:101A200002271CDAC3451ADCDE4901EB28511429D0
:101A300008DDC1F1340220FA02F101FA02F2824219
:101A40000DD108E058B9C1F1140228FA02F101FAE7
:101A500002F2424503D101F00101C1F1020756EA49
:101A60000A0124D1002C22DA002D18BF022F01D048
:101A7000012F0AD00220FEF7AFFC16B0BDEC0E8B92
:101A800004B0BDE8F04D00F013BE0220FEF7A4FC48
:101A900000F00EFE51EC100B00F0B5FE41EC100B07
:101AA00016B0BDEC0E8B04B0BDE8F08D18E09FEDD4
:101AB000BEAB9FEDBF8B002871D1B848804522D1C5
:101AC00005F1804010F5801008BFBAF1000F07D073
:101AD000B3450ADC002CA8BF9DED260BE0DA0DE033
:101AE000B0EE490AF0EE690ADAE7002C06DA9DED5D
:101AF000260B51EC100B00F086FE6FE0AE487844E8
:101B000090ED000BCCE7D8454DD1002C48DA2EB132
:101B100086423AD1BAF1000F42D126E0BAF1000F65
:101B200013D00220FEF758FC00F0F6FD8DED020BFD
:101B30009DED240B8DED000B10EE900A039961F3DF
:101B40001E0003909DED020BAAE78DED02AB9DED0B
:101B5000240B1AEE901A10EE900A8DED000B61F333
:101B60001E0003909DED020B9AE78DED028B9DED1B
:101B7000240B18EE901A10EE900A8DED000B61F315
:101B80001E0003909DED020B8AE709DA9DED240B00
:101B900051EC190B53EC102B00F0FEFE1EE020E080
:101BA0009DED240B7CE786421BDAB4F1804F0DD00B
:101BB000A4F10050B0F1FF5013D1002D11DB9DEDC9
:101BC000240B51EC100B00F0E7FD07E09DED240B1A
:101BD00053EC102B51EC100B00F0C2BC41EC100B7D
:101BE0005EE79DED240B51EC100B00F0B5FDBAF152
:101BF000000FCDE90E0142D19FED710B46B3A6F166
:101C0000E040B0F17F600CD05E4538D1002D00DAA5
:101C1000A7B3022F0CBF01204FF0FF3001F041F8B5
:101C2000DCE7002D01DD002C0DDA002D01DD002C9C
:101C30001FDB002D16DA002C14DB012F08BF9FEDEF
:101C4000620B3FF42DAFB0EE4A0AF0EE6A0A27E7C6
:101C5000022F18BF002D0CD0012F0AD1002DFFF646
:101C60001FAF06E0002DB8BF002C08DA012F3FF4AB
:101C700017AFB0EE480AF0EE680A11E71BE001204A
:101C800000EBE57050EA070115D0791EB0EE498AE5
:101C9000F0EE698A084308BF9FED4D8B4E48002542
:101CA000804570DD4D494E48884514DDB0420DDB5E
:101CB000002C19DB2FE00120FEF78EFB16B0BDECE7
:101CC0000E8B04B0BDE8F04D00F016BDB34502DC4C
:101CD000002C09DC1FE0864202DA002C1BDA03E04C
:101CE0005E452BDD002C16DD0220FEF775FB00F0B3
:101CF00013FD8DED020B53EC1A2B51EC180B01F078
:101D000037F8CDE900010399019861F31E000390B3
:101D10009DED020BC4E60220FEF75EFB00F00CFD19
:101D200010EE901A18EE900A8DED020B8DED008BDF
:101D300061F31E0003909DED020BB1E69DED0E0BCD
:101D400053EC192B51EC100B01F01EFA9FED260BF2
:101D5000CDE9080153EC102B9DED080B51EC100B55
:101D600001F006F89FED221B53EC112B01F034F922
:101D70009DED081B53EC112B00F0FAFF9FED1E1B8D
:101D800053EC112B3CE08CE0FFFF1F00FFFF0F0026
:101D9000000000000000F03F0000F03F0000F07F76
:101DA0000000404301FCFFFF000000000000F07F46
:101DB0000000000000000000F61900000000000014
:101DC0000000000000000080000000000000F0FFA4
:101DD000000000000000F0BF0000E0410000F04300
:101DE000FFFFEF3F00000000000000000000D03FB8
:101DF000555555555555D53F000000000000E03FB2
:101E000001F0EAF89DED080B41EC1A0B53EC102B96
:101E100051EC100B00F0ACFF53EC1A2B00F0A8FFB4
:101E200041EC1A0B9FEDFE0B53EC102B9DED080BB4
:101E300051EC100B00F09CFF41EC1B0B9FEDFA0BDB
:101E400051EC1A0B53EC102B00F092FF41EC1A0BE3
:101E50009FEDF70B53EC102B9DED080B51EC100B85
:101E600000F086FF53EC1A2B01F08EF941EC1A0BAF
:101E700051EC1B0B53EC1A2B00F0D2FC0690CDE971
:101E800006519DED060B53EC1B2B51EC100B01F092
:101E90007BF953EC1A2B01F09FF841EC100B00F08A
:101EA000A1B90020B6F5801F0EDA9FEDE30B53ECCD
:101EB000102B9DED0E0B51EC100B00F059FFCDE9EE
:101EC0000E016FF034000E4600EB2650A0F2FF37F3
:101ED000C6F31300DA4940F07F6646F04056884268
:101EE000D8BF002408DDD7498142C8BF012403DCE4
:101EF0000024A6F580167F1CD348784400EBC4006C
:101F00000F9690ED00CB9DED0E0B53EC1C2B51EC7E
:101F1000100B01F039F99DED0E0B41EC1B0B53EC4E
:101F20001C2B51EC100B00F07BFC41EC100B51EC26
:101F3000190B53EC102B00F02FFD41EC1D0B51EC55
:101F40001B0B53EC1D2B00F013FF41EC1A0BBF4889
:101F50008DED10AB7844109590ED000B4FF00050D4
:101F600040EA660000EB84408DED080B00F5002090
:101F700009909DED080B53EC1C2B51EC100B01F05C
:101F800003F99DED0E1B53EC112B01F025F841ECEC
:101F9000100B53EC102B9DED100B51EC100B00F0BF
:101FA000E7FE9DED080B41EC1C0B53EC102B9DED57
:101FB000100B51EC100B00F0DBFE53EC1B2B01F06F
:101FC0000BF853EC1C2B01F0DFF853EC1D2B00F049
:101FD000CFFE41EC1C0B53EC1A2B51EC1A0B00F00A
:101FE000C7FE41EC1B0B9A480621B0EE4B0AF0EEFF
:101FF0006B0A784400F0E0FAB0EE401AF0EE601A96
:10200000B0EE41DAF0EE61DA53EC1B2B51EC1B0B16
:1020100000F0AEFE53EC1D2B00F0AAFE9DED100B60
:1020200041EC1B0B53EC1A2B51EC100B00F0F8FB9E
:1020300053EC1C2B00F09CFE53EC1B2B00F0F0FB30
:102040009DED100B41EC1B0B53EC102B51EC100BC6
:1020500000F08EFE41EC1D0B9FED7FEB53EC1E2B31
:1020600000F0DEFB53EC1B2B00F0DAFB0890CDE90F
:1020700008519DED080B53EC1E2B51EC100B01F099
:1020800083F853EC1D2B01F07FF853EC1B2B00F071
:10209000A3FF9DED080B41EC1D0B53EC102B9DEDA8
:1020A000100B51EC100B00F063FE41EC1B0B53ECDA
:1020B0001A2B51EC1D0B00F05BFE9DED080B41EC63
:1020C0001A0B53EC102B51EC1C0B00F051FE53EC8F
:1020D0001A2B00F0A5FB41EC1A0B51EC1B0B53EC37
:1020E0001A2B00F09DFB0C90CDE90C519DED0C0BD3
:1020F00053EC1B2B51EC100B01F046F853EC1A2B50
:1021000000F06AFF41EC1B0B9FED550B53EC102BBD
:102110009DED0C0B51EC100B00F02AFE41EC1A0B5C
:102120009FED510B51EC1B0B53EC102B00F020FEDC
:1021300041EC1B0B9FED4E0B53EC102B9DED0C0B4C
:1021400051EC100B00F014FE53EC1B2B00F068FB5D
:1021500041EC100B4848784400EBC40090ED001BA4
:1021600051EC100B53EC112B00F05AFB41EC1B0B04
:10217000384600F096FDCDE9080153EC1B2B51ECDD
:102180001A0B00F04DFB41EC100B3C48784400EB7F
:10219000C40090ED00CB51EC100B53EC1C2B00F065
:1021A0003FFB9DED081B53EC112B00F039FB069013
:1021B000CDE906519DED080B53EC102B9DED060B60
:1021C00051EC100B00F0E0FF53EC1C2B00F0DCFF97
:1021D00053EC1A2B00F0D8FF53EC1B2B00F0FCFE45
:1021E00041EC100B9DED261B53EC102B8DED001BCD
:1021F00000959DED260B51EC100B00F0B9FD9DED07
:10220000000B41EC1A0B53EC102B9DED260B51ECFF
:10221000100B00F0B9FF9DED061B53EC112B2FE0C6
:10222000000000604715F73FFE822B654715F73F1A
:1022300044DF5DF80BAE543E000000000000404358
:102240008E9803007AB60B0072150000A0150000EE
:10225000AA14000000000000000000000000084078
:10226000000000E009C7EE3FFD033ADC09C7EE3F7E
:10227000F5015B14E02F3EBE36130000F0120000A3
:1022800000F076FD53EC1A2B00F0CAFA9DED060B18
:1022900041EC1A0B53EC102B9DED000B51EC100B85
:1022A00000F066FDCDE90C019DED0C0B51EC1A0B15
:1022B00053EC102B00F0B4FACDE902010C46AA4908
:1022C0008C422FDB611A084318D19DED0C0B53ECA7
:1022D000102B9DED020B51EC100B00F055FF41EC63
:1022E0001B0B9FEDA30B51EC1A0B53EC102B00F0C2
:1022F00097FA53EC1B2B00F039FE2DD20220FEF78B
:102300006BF800F009FA10EE901A18EE900A8DEDB5
:10231000020B8DED008B61F31E0003909DED020B0F
:10232000FFF7BEBB944A24F00041914214D3934975
:10233000214408437FF4EFAC9DED0C0B53EC102BC4
:102340009DED020B51EC100B00F01EFF53EC1A2B0D
:1023500000F00CFE7FF6DFAC24F000408849894A8B
:10236000002601EB205182422BDA481C4FF48011E9
:1023700021FA00F02044844AC0F30A517A44A1F2C1
:10238000FF3192ED000B814A8DED080BCA4020EA27
:102390000202C0F3130040F48010C1F1140120FACE
:1023A00001F60992002CB8BF76429DED080B53EC64
:1023B000102B9DED0C0B51EC100B00F0E5FECDE960
:1023C0000C019DED0C0B51EC1A0B53EC102B00F093
:1023D00027FA9FED6F0B0890CDE9085153EC102BB5
:1023E0009DED080B51EC100B00F0C2FC41EC1B0BF7
:1023F0009FED690B53EC102B9DED080B51EC100B6E
:1024000000F0B6FC9DED0C0B41EC1C0B53EC102BBB
:102410009DED080B51EC100B00F0B6FE53EC1A2B9F
:1024200000F0DAFD9FED5E1B53EC112B00F0A0FCD9
:1024300053EC1C2B00F0F4F941EC1A0B51EC1B0B84
:1024400053EC1A2B00F0ECF9CDE902019DED020BE3
:1024500053EC1B2B51EC100B00F096FE53EC1A2B97
:1024600000F0BAFD9DED020B41EC1A0B53EC102B62
:1024700051EC100B00F07CFCCDE908014A489DEDC1
:10248000080B0521784400F097F89DED081B51ECEE
:10249000100B53EC112B00F06BFC9DED021B53EC69
:1024A000112B00F099FDCDE906019DED020B53ECD7
:1024B0001A2B51EC100B00F05BFC53EC1A2B00F0C4
:1024C000AFF99FED3B0B41EC1A0B53EC102B9DED3C
:1024D000060B51EC100B00F057FE9DED060B41EC86
:1024E0001B0B53EC102B9DED020B51EC100B00F06D
:1024F0003FFC53EC1B2B00F04FFA53EC1A2B00F06F
:1025000043FE9DED021B53EC112B00F03DFE53ECFE
:10251000192B00F061FDCDE9020101EB0650011518
:102520000029C8BF039015DC9DED020B324651EC2B
:10253000100B00F04AFFFFF7ECF9042808BF00F089
:10254000FBF832469DED020B51EC100B00F03DFF05
:10255000CDE902019DED020B51EC180B53EC102B51
:1025600000F006FCFFF73ABB0000904000000000BE
:10257000FE822B654715973C00CC904000346F3F9E
:1025800001FCFFFF0000E03F78110000FFFF0F009B
:1025900000000000432EE63F396CA80C615C20BEB1
:1025A000EF39FAFE422EE63F48100000000000001E
:1025B000000000000000004070B504462DED028BC5
:1025C0004D1E00EBC500B0EE408AF0EE608A90ED43
:1025D000000B35F0060017D053EC182B51EC100B04
:1025E00000F0C6FB41EC100B6D1E04EBC50090ED36
:1025F000001B51EC100B53EC112B00F011F941ECC6
:10260000100B35F00600E7D1022D36D0042D1CD07A
:10261000062D1CBFBDEC028B70BD53EC182B51EC8A
:10262000100B00F0A5FB94ED0A1B53EC112B00F0EE
:10263000F7F853EC182B00F09BFB94ED081B53ECC0
:10264000112B00F0EDF841EC100B53EC182B51EC72
:10265000100B00F08DFB94ED061B53EC112B00F0DA
:10266000DFF853EC182B00F083FB94ED040B53ECD4
:10267000102B00F0D5F841EC100B53EC182B51EC5B
:10268000100B00F075FB94ED021B53EC112B00F0C6
:10269000C7F853EC182B00F06BFB94ED001B53ECC8
:1026A000112B00F0BDF8BDEC028B41EC100B70BD9E
:1026B0009FED070B10B553EC102B9FED070B51EC62
:1026C000100B00F069F941EC100B10BD0000000088
:1026D0000000000000000000000000000000F03FCB
:1026E00010B553EC112B51EC100B00F099F841ECA4
:1026F000100B10BD000000009FED050B10B553EC52
:10270000102B51EC100B00F047F941EC100B10BDF1
:1027100000000000000000009FED050B10B553EC19
:10272000102B51EC100B00F023FB41EC100B10BDF3
:1027300000000000000000709FED050B10B553EC89
:10274000102B51EC100B00F013FB41EC100B10BDE3
:10275000000000000000001082B0CDE9000121F06F
:10276000004001909DED000B02B051EC100B704742
:10277000FDF7FCFFFEF700FFFEF7A2FEFEF7BEFE30
:10278000FEF7D8FE012202490248FEF703FDFEE7EC
:10279000020000207800002000B52DED048B83B0EE
:1027A00041EC190B00F024FC41EC180B18EE100A58
:1027B00018EE901A8DED008B002818BF01200843F9
:1027C00020F00040C0F17F6000F1E040C00F14D065
:1027D00019EE101A19EE900A8DED009B002918BF12
:1027E0000121084320F00040C0F17F6000F1E0408B
:1027F000C00F04BF0120FDF7EFFD51EC180B03B033
:10280000BDEC048B00BD81F00041704780F00040BA
:10281000704721F00041704720F0004070470000F1
:1028200010B591EA030F48BF83F0004300F1B48470
:10283000841A71EB030C05D2121943EB0C03001B35
:1028400061EB0C01DFF824E14FEA1154A4EB135CB7
:102850001EEA430F18BF9EEA445F73D023EA0E03BB
:10286000DCF1200E21EA045143F4801332D322FA22
:102870000CFE10EB0E0023FA0CFE41EB0E01CCF126
:10288000200E03FA0EFE10EB0E0051F10001B1F51F
:10289000801FCCF1200E32D201EB045112FA0EF25D
:1028A000BDE8104058BF7047401C38BF5FEA420285
:1028B00018BF7047002814BF20F0010041F100014B
:1028C0004FEA410313F5001F38BF7047A1F1C04123
:1028D00000F046BB012A43EB0302ACF1200CDCF113
:1028E0001F0E32BF4FF0000E23FA0CF310EB030063
:1028F00041EB0451B4EB115FD0D0A1EB045101F5D1
:10290000801149085FEA300001EB04510ED350F109
:10291000000038BF12FA0EFE08D1BDE81040C9E72A
:10292000401C38BF5FEA4202CAD1C3E7BDE810408D
:102930004FEA410313F5001F38BF7047A1F1C041B2
:1029400000F00EBB9EEA445F08D011EA5E0FBDE8BE
:10295000104004BF01F0004100207047BDE8104066
:1029600070B500F0AFFA00BF64FBBE3E0000E0FFB0
:1029700002494FF0000000F0F6BC00BF0000F87FF5
:10298000491058BFC1F140415B1058BFC3F14043EB
:102990008B42EFF3008070472DE9C04130B4DFF87F
:1029A000A0C23CEA111418BF3CEA131400F0EC80FA
:1029B00081EA03051CEA111444EAD57418BF1CEA25
:1029C000131500F0C780A4EB05044FF0004545EA5D
:1029D000C12145EAC32341EA505143EA525304F16D
:1029E0007F74994204F500344FEAC0204FEAC222B6
:1029F00008BF904200F09C804FEA13650FF240162A
:102A0000765D4FEA134506FB05F7C7F1807706FBB5
:102A100007F74FEAD737A7FB03687642C8F5803837
:102A2000A7FB06CE38BFA8F1010807FB08E64FF068
:102A3000000EA6FB028CE6FB03CEDCF1000CCEF10F
:102A4000004E38BFAEF1010EA6FB0C584FF0000748
:102A50004FF00005E6FB0E87A1FB08C6A0FB07CEE2
:102A600016EB0E0645F10005E1FB076515F1E04E9A
:102A70007EBFA4F580345FEA46066D4116F18007FB
:102A800045F100054FEA17274FEA066647EA056752
:102A9000A6F1DE46B6F1805F4FEA15251FD938460C
:102AA00024F0010C05EBC471BCF1FE6F01EB0C11BD
:102AB00002D8F0BCBDE8008124425CBF01F5801E55
:102AC0009EEAC47F02D4F0BCBDE80081244238D421
:102AD000F0BCA1F1C041BDE8004100F041BA4FEAAD
:102AE000D22242EA43524FEAD323A7FB02864FEA9F
:102AF000D02040EA415007FB03661EEA0E0F4FEA62
:102B0000D12105FB026658BFA6EB0056B6EB005676
:102B10004FEA520E4EEAC37E18EB0E0E56EB530EE2
:102B2000BDD518EB02085E417F1C55F10005B6E7E4
:102B30004FF480154FF000074FF000064FF00008EB
:102B4000ADE7F0BC4FF0000001F1C04101F00041E1
:102B5000BDE8008111EA0C1F0CEA131500D00CE04F
:102B600013EA0C1F00F025804FF00000F0BC81EA52
:102B7000030101F00041BDE80081F0BCBDE8004167
:102B800081EA030100F0ECB9F0BCBDE8004170B58A
:102B900000F098F9097EFC3E00F007B881EA0301D5
:102BA0004FF0000001F00041704781EA030100F09E
:102BB000D7B9F0BCBDE800414FF000002149704793
:102BC000FFFDFBF9F7F5F4F2F0EEEDEBE9E8E6E4F2
:102BD000E3E1E0DEDDDBDAD8D7D5D4D3D1D0CFCD79
:102BE000CCCBCAC8C7C6C5C4C2C1C0BFBEBDBCBBB2
:102BF000BAB9B8B7B6B5B4B3B2B1B0AFAEADACABAD
:102C0000AAA9A8A8A7A6A5A4A3A3A2A1A09F9F9E86
:102C10009D9C9C9B9A999998979796959594939338
:102C2000929191908F8F8E8E8D8C8C8B8B8A8989CF
:102C30008888878786858584848383828281818052
:102C40000000FF070000F87F4FEA1153A3F58063EF
:102C5000D3F11E03A8BFD3F1200C08DB4FF00042D4
:102C600042EAC12252EA505232FA03F07047094256
:102C70000BD4102BC4BF0020704703F5787CBCF147
:102C8000FF3F05D04FF0FF3070474FF00000704716
:102C900070B500F017F900BF4992248000207047FA
:102CA000F0E710F0004248BF4042B0FA80F310FA5B
:102CB00003F10AD0C3F11D0303F580634FEA4150CD
:102CC00002EB035202EBD12170474FF00000704736
:102CD000B0FA80F310FA03F10AD0C3F11D0303F533
:102CE00080634FEA41504FEA035202EBD121704713
:102CF0004FF000007047000051EA030C17D41CF598
:102D0000801F58BFBCF5801F00F10680994218BF94
:102D1000704708BF9042704707D711F5801F58BF12
:102D200013F5801F19D499427047894270471CF5EA
:102D3000801F08D5BCF5801FF7D58B4218BF7047A0
:102D400008BF824270474FF4001C1CEB410F38BF94
:102D50001CEB430F01D28B42704770B500F0B2F804
:102D6000922449004FF000514FF08053FFF708BE06
:102D7000DFF848C170B51CEA111E1EBF1CEA13150E
:102D80009EEA0C0F95EA0C0F00F06F8081EA0304B5
:102D900023EA4C134EEAD47E21EA4C1141F480110F
:102DA00043F48013AE44A1FB024CA0FB0365AEF1DB
:102DB0007F7E361955EB0C05A1FB034C4CF100034B
:102DC000A0FB021C16EB0C06654153F100030942FF
:102DD00018BF46F0010613F4007F0BD14FEA033110
:102DE0004FEA0530340341EA155140EA16506FF0BE
:102DF00003020AE04FEAC3214FEAC520F40241EA88
:102E0000555140EA56506FF0020202EB2E4201EBA0
:102E1000025585EACE710AD05FEA440C18BF24F04F
:102E2000004450F1000041F1000120EAD47040F26A
:102E3000FE7C624500D270BDA84214BF4FF08044B2
:102E40004FF04044002E08BF0024BEF1806FA8BFA1
:102E5000A1F1C041BDE8704080F282804FF00000D7
:102E600001F1C04101F0004170479EEA0C0F0CEAED
:102E7000131518BF95EA0C0F06D04FF0000081EA39
:102E8000030E0EF0004170BD00F01CF88900013EF9
:102E900000F007B800F009B84FEA430C5FEA5C5C49
:102EA00008D081EA030100F05BB84FEA410C5FEA09
:102EB0005C5CF6D14FF00000014970470000FF074D
:102EC0000000F87F0EF1020E2EF0030E5EF8046B88
:102ED000364205D4012A43EB030515F5001F12D82D
:102EE000012841EB010C1CF5001F0CD80ED14FEA54
:102EF000D17C15F5001F0CEB4C0C0CF1020C08BF3B
:102F00004CEBD37C04E04FF0080C01E04FEAD37C9B
:102F10000CEB4C0526FA05F606F00706B6F1040C94
:102F200006D20EEB860CBDE870404CF0010C6047F9
:102F3000DFE80CF0090B02024FF000414FF00000F7
:102F4000A1F5002170BD19461046012851EB01047E
:102F500018BFD4F5001484BF002001F0004170BDFB
:102F60000808A0F500114FEA3101704753EA010C3F
:102F700017D41CF5801F58BFBCF5801F00F10680D8
:102F80008B4218BF704708BF8242704707D713F5BE
:102F9000801F58BF11F5801F19D48B4270479B4288
:102FA00070471CF5801F08D5BCF5801FF7D59942E6
:102FB00018BF704708BF904270474FF4001C1CEBCD
:102FC000430F38BF1CEB410F01D2994270470FB439
:102FD0000CBC03BCFFF7C1BE91EA030F10B581F032
:102FE00000413FF525AC83F0004300F0D5B8000068
:102FF0002DE9F04101F5801CBCF5001FC0F2A9804D
:103000004FEA115C21EA0C510CF1FD0C41F48011E6
:103010005FEA5C0C0CF5C07C01D34000494130A450
:10302000890241EA905187028E0E0A0CA45D04FBCE
:1030300004F602FB06F6C6F14046A4FB0662F60D56
:1030400046EA422606FB06F4A4FB01235242C3F1E2
:10305000404338BF5B1EA6FB02420024E6FB03246C
:10306000D20B42EA4446A6FB0623A1FB02E2A3FBE5
:1030700007E4E3FB61426442C2F1404E38BFAEF167
:10308000010EA6FB04234FF00002E6FB0E32A2FB6A
:1030900003463400E2FB6264A1FB06E6A4FB07E8FA
:1030A000E4FB61687642C8F1405838BFA8F10108D6
:1030B000A2FB06E4A3FB08E5E2FB6854A1FB05E6DE
:1030C000A7FB04E8E1FB648618F1200556F1000631
:1030D000A809A8F11B08B10908F03F08B8F10A0FC8
:1030E00040EA86601CD901EB0C51BDE8F08100BFBD
:1030F000FCF5EEE8E2DDD8D3CFCBC7C3C0BDB9B68F
:10310000B4B1AEACA9A7A5A3A19F9D9B9A98969593
:103110009392908F8D8C8B8988878685848382811A
:10312000A0FB006800FB01F208EB4208B8EB87281F
:1031300007D5341858EB0104D5D5401C51F10001D6
:10314000D1E7341A78EB0104CDD4401E71F10001AF
:10315000C9E75FEA4C0C5FEA9C5C0DD105D34FF0E8
:10316000000001F00041BDE8F081BDE8F04170B51C
:10317000FFF7A8FE6DDBFFBEBDE8F0414FF0000099
:10318000004970470000F87F10B591EA030F48BF6F
:1031900083F000433FF54CAB841A71EB030C07D26C
:1031A00012198CF0004C43EB0C03001B61EB0C017B
:1031B000DFF8A4E14FEA1154A4EB135C1EEA430FBD
:1031C00018BF9EEA445F00F0B08023EA6E035242CB
:1031D00021EA0451C3EB6E0338BF5B1EDCF1200E05
:1031E00025D322FA0CFE10EB0E0043FA0CFE41EB45
:1031F0000E01CCF1200E03FA0EFE10EB0E0051F181
:103200000001CCF1200E29D412FA0EF201EB045188
:10321000BDE8104058BF7047401C1CBFB2F1004FC2
:10322000704700280CBF491C20F00100704712EBCA
:10323000020E43EB030218BF4FF0010E4EEA4202AA
:10324000ACF1200CDCF11E0E54D943FA0CFE10EB4D
:103250000E0051F1FF31CCF11E0ED5D50EF1010E4D
:1032600012FA0EFE404141EB010101EB445C5FEAC2
:103270005C5C10D910EBDE7001EB045138BFBEF17D
:10328000004FBDE8104018BF704700280CBF491C14
:1032900020F00100704730D24FEAD42C11F5001114
:1032A00024F400641BD0B1FA81F20B3AA41AA41ED4
:1032B000D2F12003914030FA03F31943904001EB1F
:1032C000CC71002C01EB0451BDE81040A8BF704741
:1032D00001F1C0414FF0000001F000417047B0FA29
:1032E00080F310FA03F100D110BDE41A173C480531
:1032F000C90AE4E701EB045110BD491001EB045188
:10330000BDE810404FEA300002E04FF00001704786
:103310004A0008BF0042F8D0B2F5001F28BF70472E
:1033200001F000414FF0000070479EEA445F07D073
:1033300011EA5E0FBDE8104004BF00210020704775
:10334000BDE8104070B5FFF7BDFD00BF40DFF63EA1
:1033500083F00041104670470000E0FF4FF04070DE
:10336000E1EE100A70470CF00F03092B08BF08208C
:1033700000F059800A2B0BD0082B18BF704708BFEC
:103380001CF0400F0AD04FF000004FF000017047D2
:103390001CF0400F18BF4FF0004070471CF0100F9A
:1033A00008D020F0704300F07F4242EAD3014FEA98
:1033B0004370704700F0604021F07F4242EA000213
:1033C00001F07F4040EA727070474FF0FF0C4CF400
:1033D000E06C1CEA11531CBF9CEA030C9445C2BF6D
:1033E000DA4201EB02517047002B0DD0BCF1000F07
:1033F0000FD0002A01F00041A4BF41F0E04141F0AC
:103400007F614FF00000704701F000414FF0000075
:10341000704750EA01334FF09B0C18BF4CF0806CA2
:103420007FF4A6AA70471CF4801F11D01CF4E02F73
:1034300003D06FEACC31490070474FF04050EFF3B2
:10344000008222F0704242EA000282F30088704754
:103450004FF0000070470000000000000000010273
:10346000030406070809000000000102030400002D
:10347000000000000000F03F000000000000F83FE6
:1034800000000000000000000000004003B8E23F20
:10349000000000000000000006D0CF43EBFD4C3ED2
:1034A000033333333333E33FFFAB6FDBB66DDB3FC7
:1034B0004D268F515555D53F01411DA96074D13F0F
:1034C00065DBC9934A86CD3FEF4E454A287ECA3F09
:1034D0003E5555555555C53F93BDBE166CC166BF8B
:1034E0002CDE25AF6A56113FF16BD2C541BDBBBE84
:1034F000D0A4BE726937663E0000000000000000E4
:10350000203500080000002028000000E801000825
:103510004835000828000020F806000004020008D2
:103520000000000D0A000000000000000000000084
:103530002B3030302E303030010000001000000001
:08354000000000000024F4006B
:04000005080001AD41
:00000001FF
