:020000040800F2
:10000000000700204D0200083F1500088F1400086B
:100010003D1500081D0600087117000800000000CB
:100020000000000000000000000000004315000870
:100030001F060008000000004115000845150008D3
:1000400067020008670200086702000867020008EC
:1000500067020008670200086702000867020008DC
:1000600067020008670200086702000867020008CC
:1000700067020008670200086702000867020008BC
:1000800067020008670200086702000867020008AC
:10009000670200086702000867020008670200089C
:1000A000670200086702000867020008670200088C
:1000B000670200086702000867020008670200087C
:1000C000670200086702000867020008670200086C
:1000D000670200086702000867020008670200085C
:1000E000670200086702000867020008670200084C
:1000F000670200086702000867020008670200083C
:10010000670200086702000867020008670200082B
:10011000670200086702000867020008670200081B
:10012000670200086702000867020008670200080B
:1001300067020008670200086702000867020008FB
:1001400067020008670200086702000867020008EB
:1001500067020008670200086702000867020008DB
:1001600067020008670200086702000867020008CB
:10017000670200086702000867020008000000002C
:1001800067020008670200086702000867020008AB
:10019000670200086702000867020008670200089B
:1001A00000000000000000006702000800F002F8F4
:1001B00000F03CF80AA090E8000C82448344AAF1C5
:1001C0000107DA4501D100F031F8AFF2090EBAE8C3
:1001D0000F0013F0010F18BFFB1A43F0010318477B
:1001E0005816000078160000103A24BF78C878C16D
:1001F000FAD8520724BF30C830C144BF04680C602D
:10020000704700000023002400250026103A28BF74
:1002100078C1FBD8520728BF30C148BF0B60704778
:100220001FB501F0F7FA1FBD10B510BD00F0CFF8F3
:100230001146FFF7F5FF01F0ADFA00F0EDF803B459
:10024000FFF7F2FF03BC00F0F5F800000948804713
:1002500009480047FEE7FEE7FEE7FEE7FEE7FEE7A8
:10026000FEE7FEE7FEE7FEE704480549054A064BC0
:1002700070470000DD150008AD01000800010020F6
:1002800000070020000300200003002053EA020CB6
:1002900000F069802DE9F04B4FF00006002B1FBFE6
:1002A000B3FA83F503FA05F424FA05F65E4012BFAB
:1002B0001643B2FA82F502FA05F4C5F120051EBF15
:1002C00022FA05FC44EA0C04203556EA044C4FEAB5
:1002D000144418BF641C4FF000084FF0000990420E
:1002E00071EB030C39D3002919BFB1FA81F701FA78
:1002F00007F6B0FA80F700FA07F6C7F120071EBF2D
:1003000020FA07FC46EA0C062037B6FBF4FCA7EB04
:100310000507103F07F01F0BCBF120060CFA0BFB73
:100320002CFA06F644BFB3460026202FA4BF5E4633
:100330004FF0000B5BEA060C08BF4FF0010B19EB06
:100340000B09ABFB027C48EB0608C01B06FB02CC8A
:100350000BFB03CC71EB0C01C1E70B460246414697
:100360004846BDE8F08B13B54FF000004FF0000198
:10037000AFF30080BDE81C4070474FF0000200B5AD
:10038000134694469646203922BFA0E80C50A0E8B8
:100390000C50B1F12001BFF4F7AF090728BFA0E866
:1003A0000C5048BF0CC05DF804EB890028BF40F832
:1003B000042B08BF704748BF20F8022B11F0804F74
:1003C00018BF00F8012B704770477047704775469B
:1003D00000F02CF8AE4605006946534620F00700B1
:1003E000854618B020B5FFF73FFFBDE820404FF02D
:1003F00000064FF000074FF000084FF0000B21F00F
:100400000701AC46ACE8C009ACE8C009ACE8C009DB
:10041000ACE8C0098D46704710B50446AFF30080C4
:100420002046BDE81040FFF70ABF000000487047B3
:100430009C00002001491820ABBEFEE72600020008
:10044000704700007FB50E460025012106221328C3
:1004500017D2DFE800F0160A0C0E1113151E202229
:100460002426282A2C2E30323400009109E0022064
:1004700000E00320009004E00420FBE70520F9E7FA
:100480000092CDE901126946194800F0C9F800242C
:1004900027E00720EEE70820ECE70920EAE70A203A
:1004A000E8E70B20E6E70C20E4E70D20E2E70E206A
:1004B000E0E70F20DEE71020DCE71120DAE712206A
:1004C000D8E70B4800F012FA1E21094800F0B8F9ED
:1004D000074800F057F90544054800F085FA641C08
:1004E000E4B2B442EDD3B5FBF6F004B070BD000049
:1004F00010000020464910B54A6822F440324A6094
:100500004A6843681A434A6001684A6822F4807264
:100510004A6001684A68036942EA03224A60016846
:100520004A6822F040724A6001684A6883681A4348
:100530004A6001688A6822F400628A6001688A68F9
:10054000C3681A438A60816A6FF07062D1420168A1
:100550008A6822F070628A6001688A680CD0836AB7
:100560001A438A6001688A6822F040528A600168F2
:100570008A68C36A1A4301E022F040528A60016827
:100580008A6822F002028A6001688A68037E42EA71
:1005900043028A6090F82010002901684A680FD051
:1005A00042F400624A6001684A6822F460424A608C
:1005B00001684A68174C436A04EB43331A4301E06D
:1005C00022F400624A600168CA6A22F47002CA62B8
:1005D0000168CA6A838B104C04EB03531A43CA6246
:1005E00001688A6822F400728A6001688A6890F85B
:1005F000303042EA43228A6001688A6822F48062CD
:100600008A6001688A68406942EA8020886010BD7B
:100610000023014000E0FFFF0000F0FFFEE770470D
:1006200078B50024009490F83C20012A19D00122CA
:1006300080F83C200A6807230568092A13D9EE6868
:100640000A3A02EB420293409E43EE600B788A68BE
:100650000A3B03EB43039A400368DD682A43DA60F0
:1006600010E0022078BD2E6902EB420293409E43C7
:100670002E610B788A6803EB43039A4003681D6977
:100680002A431A614A681F23072A13D205686E6B32
:10069000521E02EB820293409E436E630A8893B21D
:1006A0000A79521E02EB820293400268556B2B437B
:1006B000536327E005680D2A12D22E6BD21F02EB7E
:1006C000820293409E432E630B790A88DB1F92B20D
:1006D00003EB83039A4003681D6B2A431A6311E0FE
:1006E000EE6A0D3A02EB820293409E43EE620B7972
:1006F0000A880D3B92B203EB83039A400368DD6ADC
:100700002A43DA621B4B0568194A9D420AD10D68DB
:10071000122D07D1556825F400055560556845F43C
:100720008005556005689D421DD1134D0B68AB4295
:1007300001D0112B17D1536823F480035360536801
:1007400043F4000353600968A9420CD10B490C4AD9
:100750000968B1FBF2F101EB8101490000E0491E9B
:1007600000910029FBD180F83C40002078BD0000BA
:100770000023014000200140120000100C00002066
:1007800040420F000068C06C704770B504004FF025
:10079000000503D0206C002610B107E0012070BDD9
:1007A000204600F01DF8666484F83C60206CC006AA
:1007B00010D4206C20F4885040F0020020642046C1
:1007C000FFF798FE6664206C20F0020040F0010004
:1007D000206400E0012584F83C60284670BD0000DC
:1007E00010B586B0044614216846FFF7C6FD1149CE
:1007F000206888421CD110480021026842F48072AF
:100800000260006800F4807005900B48143802689C
:1008100042F002020260006800F002000590012030
:1008200000900320CDE901016946044800F00CF96D
:1008300006B010BD002001404438024000040240D0
:100840002DE9F041044600680D4681684FF000072D
:1008500049050BD58068C00508D5206C40F0200004
:10086000206484F83C700120BDE8F08100F006FAB5
:10087000064613E0681C11D025B100F0FFF9801B7B
:10088000A8420BD920680068800707D4206C40F08C
:100890000400206484F83C700320E5E720680068C9
:1008A0008007E7D521686FF012000860206C40F4E3
:1008B000007020642068816811F0405F13D1217EB0
:1008C00089B9C16A11F4700F02D0806840050AD45A
:1008D000206C20F480702064206CC00403D4206C51
:1008E00040F0010020640020BEE7000018B50021A0
:1008F000009190F83C20012A07D0012280F83C208A
:1009000002689368DB0702D011E0022018BD9368EB
:1009100043F0010393602E4A2E4B1268B2FBF3F2B0
:1009200002EB420200E0521E0092002AFBD1026854
:100930009368DB0742D0036C40F20164A34343F4A5
:100940008073036453685B0505D5036C23F400537F
:1009500043F480530364036CDB0404D5436C23F03D
:100960000603436400E0416480F83C101A496FF0CC
:100970002203136049680068CA06184906D08842F5
:1009800024D1816811F0405F13D01FE08842F8D075
:10099000134A904203D1D1F80423D206F1D0114A70
:1009A000904213D1D1F8041301F01F011029E8D3AC
:1009B0000CE0816841F08041816007E0016C41F00A
:1009C00010010164416C41F001014164002018BD37
:1009D0000C00002040420F00002301400020014095
:1009E000002101400022014090F83C1001290CD068
:1009F000012180F83C1001688A6822F001028A60B7
:100A000001688968C90702D007E002207047016CBD
:100A100021F4885141F001010164002180F83C106B
:100A20000846704770B5044600F028F90546601C7A
:100A300002D004480078044400F020F9401BA04292
:100A4000FAD370BD000000202DE9F84FDFF8F8A1BF
:100A5000002201240AF1040B03254FF00F090BF1CA
:100A6000040E00BF0B6804FA02F63340B34270D1A3
:100A70000F7907F00307012F01D0022F16D18768E5
:100A80004FEA420805FA08FC27EA0C07D1F80CC027
:100A90000CFA08FC4CEA070CC0F808C04768B743DA
:100AA0000E79C6F3001696403E4346600E79F64333
:100AB000B6070AD0C7684FEA420C05FA0CF6B743EE
:100AC0008E6806FA0CF63E43C6600E7906F0030601
:100AD000022E10D1D60800EB8608D8F82060570700
:100AE0004FEAD76C09FA0CF7BE430F6907FA0CF707
:100AF0003743C8F8207006684FEA420C05FA0CF735
:100B0000BE430F7907F0030707FA0CF73743076076
:100B10004E6816F4403F1CD04C4E376847F480476F
:100B20003760366822F0030706F480460096484E88
:100B300007EB060CDCF8086897073F0F09FA07F87F
:100B400026EA0806DFF80C81404503D14FF0000883
:100B500041E072E0DFF80081404502D14FF001082A
:100B600039E0DFF8F880404502D14FF0020832E06A
:100B7000DFF8EC80404502D14FF003082BE0DFF8AE
:100B8000E480404502D14FF0040824E0DFF8D8802B
:100B9000404502D14FF005081DE0DFF8D080404508
:100BA00002D14FF0060816E0DFF8C480404502D1BC
:100BB0004FF007080FE0DFF8BC80404502D14FF04E
:100BC000080808E0DFF8B080404502D14FF009087E
:100BD00001E04FF00A0808FA07F848EA0608CCF8DE
:100BE0000888DAF800605746D1F804C09E435FEAEF
:100BF000CC3C00D51E433E60DBF800605F46D1F878
:100C000004C09E435FEA8C3C00D51E433E60DEF884
:100C100000607746D1F804C09E435FEACC2C00D533
:100C20001E433E60084F0C373E68D1F804C09E4317
:100C30005FEA8C2C00D51E433E60521C102AFFF444
:100C400011AFBDE8F88F0000003C0140443802407D
:100C50000030014000000240000402400008024051
:100C6000000C024000100240001402400018024034
:100C7000001C02400020024000240240014880681D
:100C8000704700000000002002488168027811448B
:100C900081607047000000200B4810B5016841F4E6
:100CA00000710160016841F480610160016841F4F4
:100CB00080710160032000F061F80F2000F006F859
:100CC00000F024F8002010BD003C024070B50D4D2E
:100CD00004464FF47A712878B1FBF0F00A490968AC
:100CE000B1FBF0F000F0FEFA48B9102C07D2002258
:100CF0002146501E00F022F800206C6070BD0120DB
:100D000070BD0000000000200C0000200A4808B55B
:100D1000016841F480410160006800F48040009067
:100D20000548001F016841F080510160006800F033
:100D30008050009008BD000044380240F0B40E4BD3
:100D40001B680C46C3F30223C3F10705042D00D929
:100D50000425191D072901D2002300E0DB1E01260E
:100D600006FA05F1491E214099409E40761E164024
:100D70003143F0BC00F0FDBC0CED00E0064900F092
:100D8000070208684FF6FF03184040EA0220034AB2
:100D900010430860704700000CED00E00000FA0509
:100DA0002DE9F0470E46050065D0DFF81481D8F82C
:100DB0000000F7B200F00F00B04207D288F80070D0
:100DC000D8F8000000F00F00B04254D128683D4C24
:100DD000810712D5400703D5206840F4E050206019
:100DE0002878000703D5206840F460402060206820
:100DF000A96820F0F000084320602878C0072DD0B3
:100E0000304968680839012812D0022813D0032815
:100E100011D00968890700292DDA216821F0030122
:100E200001432160FFF72AFF814641F2883A0EE034
:100E300009688903EFE709688901ECE7FFF71EFFFE
:100E4000A0EB0901514502D90320BDE8F0872068D5
:100E5000696800F00C00B0EB810FEFD1D8F80010FA
:100E6000404601F00F01B14207D90770006800F059
:100E70000F00B04201D00120E7E72878400705D5F0
:100E80002068E96820F4E0500843206028780007D3
:100E900006D52068296920F4604040EAC10020603E
:100EA00000F038F82168084AC1F30311515CC840CA
:100EB0000649086006480068FFF708FF0020C4E7FD
:100EC000003C0240083802401E1800080C000020B8
:100ED000040000200448054900680968044AC1F379
:100EE0008221515CC84070470C0000200838024045
:100EF0002E1800080448054900680968044AC1F32F
:100F00004231515CC84070470C0000200838024054
:100F10002E180008154810B5006810F00C0214488F
:100F200013D01449042A0FD0082A0ED10F4C241FC5
:100F30002268236802F03F025B0207D52068C0F3F5
:100F40008810A0FB010106E0084610BD2168C1F32E
:100F50008811A1FB00010023FFF798F92168C1F374
:100F60000141491C4900B0FBF1F010BD08380240B6
:100F70000024F40040787D012DE9F84F04006ED084
:100F80002078DFF84C93C007A9F104054AD009F195
:100F900004000168C1F38101012908D00068C0F391
:100FA000810002280AD1D9F80000400206D528683D
:100FB000800337D560680028E1D033E06068B0F581
:100FC000803F10D0B0F5A02F286810D020F48030DA
:100FD0002860286820F4802028606068A8B1FFF7A6
:100FE0004DFE06460DE0286840F48030F4E740F4FA
:100FF00080202860F7E700BFFFF740FE801B6428D1
:1010000073D828688003F7D50CE0FFF737FE064653
:1010100005E000BFFFF732FE801B6428F0D8286887
:101020008003F7D42078DFF8AC8280074FF0000A05
:101030003ED5A748001D016811F00C0F08D00068CC
:10104000C0F3810002280BD1D9F80000400207D478
:101050002868800716D5E068012800D112E033E146
:10106000E068B8B10120C8F80000FFF707FE0646A7
:1010700005E000BFFFF702FE801B0228C0D82868E9
:101080008007F7D52868216920F0F80040EAC10000
:1010900028600DE0C8F800A0FFF7F0FD064604E068
:1010A000FFF7ECFD801B02281FD828688007F7D4C3
:1010B0002078000722D5864F87486169703771B163
:1010C00001210160FFF7DAFD064604E0FFF7D6FDD7
:1010D000801B022809D838688007F7D50EE0C0F8D1
:1010E00000A0FFF7CBFD064605E082E0FFF7C6FD56
:1010F000801B02287DD838688007F7D42078400705
:1011000068D5DFF8CCB100270BF13C0BDBF8000011
:10111000C0000BD4DBF8001041F08051CBF8001078
:10112000DBF80000012700F0805000906B4E306823
:10113000C00510D4306840F480703060FFF79EFD29
:10114000009005E0FFF79AFD0099401A022850D858
:101150003068C005F6D55E4EA0686C3601280FD009
:101160000528306810D020F001003060306820F091
:1011700004003060A068B8B1FFF780FD00900FE078
:10118000306840F00100F4E740F004003060F7E719
:10119000FFF774FD0099411A41F28830814266D808
:1011A00030688007F4D50EE0FFF768FD009007E097
:1011B000FFF764FD0099411A41F28830814256D808
:1011C00030688007F4D42FB1DBF8001021F0805193
:1011D000CBF80010A069C8B33D49091D0968C1F3E7
:1011E000810102294AD00228504607D0C8F8600081
:1011F00000E03CE0FFF742FD04463BE04746C8F80C
:101200006000FFF73BFD064605E000BFFFF736FD37
:10121000801B02282BD828688001F7D4D4E9070165
:101220000843A16A2E4A490802EB0141626A41EA79
:101230008211084394F82C1040EA0161C9F80010AB
:1012400001203866FFF71AFD044606E03EE000BFC5
:10125000FFF714FD001B022809D828688001F7D584
:1012600034E000BFFFF70AFD001B022802D903206B
:10127000BDE8F88F28688001F4D427E00128F7D072
:10128000D9F80000E26900F4800191421CD1226A81
:1012900000F03F01914217D147F6C071626A0140E8
:1012A000B1EB821F10D1A26A4FF0FF3300F440313E
:1012B00003EB5202B1EB024F06D194F82C1000F070
:1012C0007060B0EB016F01D00120D1E70020CFE7C3
:1012D0000438024000004742800E47420070004040
:1012E0000000FFFF10B5401EB0F1807F01D3012048
:1012F00010BD4FF0E02460610F21601700F039FA53
:101300000020A06107202061002010BD70B50400FE
:1013100004D094F83D00002510B106E0012070BD16
:1013200084F83C50204600F023F8242084F83D0047
:101330002068C16821F40051C160204600F056F9D0
:101340002068016921F4904101612068416921F020
:101350002A0141612068C16841F40051C1602564DF
:10136000202084F83D0084F83E00002070BD00007D
:1013700010B586B0044614216846FEF7FEFF1449F6
:101380002068884221D113480021026842F02002DF
:101390000260006800F0200005900E4814380268D2
:1013A00042F040020260006800F0400005904FF4F7
:1013B000844000900220CDE9010103200390082021
:1013C000049069460448FFF73FFB06B010BD0000DB
:1013D0000014014044380240001802402DE9F8434F
:1013E000044690F83D001F4616460D4620284CD175
:1013F000C5B1BEB194F83C00012846D0012084F864
:101400003C004FF00008C4F84080212084F83D00E3
:10141000FFF734FCA6848146E684A068B0F5805FBF
:1014200003D004E00120BDE8F883206928B12E46EE
:101430005FF0000584F83C800EE00026FAE780218A
:10144000204600F059F9A0B9AEB116F8010B216899
:101450004860E08C401EE084E08C4B464FF0000278
:1014600000970028EBD14FF04001204600F044F9EE
:1014700030B10320D7E735F8020BC0F30800E6E7E8
:10148000202084F83D000020CDE70220CBE7FEE7D6
:101490007FB50024144800940194029411490394E8
:1014A000C0E90014012505618460057680F82040BC
:1014B0000E49C0E90A14C561C46080F83040456136
:1014C000FFF763F908B172B6FEE70820CDE9000521
:1014D000694602940448FFF7A3F8002801D072B6C9
:1014E000FEE77FBD00200140100000200100000F3A
:1014F000114808B5016841F040010160016801F040
:1015000040010091016841F001010160016801F0B2
:1015100001010091016841F080010160016801F062
:1015200080010091016841F002010160006800F053
:101530000200009008BD000030380240FEE7FEE7E0
:1015400070477047FFF7A0BB30B593B030216846B5
:10155000FEF713FF14210CA8FEF70FFF1D4800240F
:10156000016841F080510160006800F080501190E6
:101570001948016821F4404141F48041016000684C
:10158000022500F4404011900120039010200490A7
:10159000009506950820CDE907404820CDE90905CA
:1015A00004200B906846FFF7E7FC08B172B6FEE72F
:1015B0000F20CDE90C054FF48050CDE90E400221FB
:1015C0000CA81094FFF7ECFB002801D072B6FEE7E0
:1015D00013B030BD4038024000700040024801683E
:1015E00041F470010160704788ED00E070B5044679
:1015F00000680169E26821F44051114301612169E9
:10160000A068E26908436169114308432168CA6818
:1016100049F20C639A430243CA6020684169A26997
:1016200021F440711143416131492068884202D060
:101630003049884202D1FFF75DFC01E0FFF74AFC28
:10164000E2690023192164253226B2F5004F626851
:1016500028D0A0FB0101930F9200FEF717FE014670
:10166000B0FBF5F06FF01802504301EB800006EB81
:101670000010B0FBF5F000F0F002B1FBF5F002EB6A
:101680000012B1FBF5F06FF01803584301EB800036
:1016900006EB0010B0FBF5F000F00F0021681044DD
:1016A000886070BDA0FB010192185B41FEF7EEFD62
:1016B0000146B0FBF5F00201B1FBF5F06FF0180345
:1016C000584301EB800006EBC000B0FBF5F000F0E2
:1016D000F80002EB4002B1FBF5F0584301EB80004B
:1016E00006EBC000B0FBF5F000F00700D6E7000005
:1016F00000100140001401402DE9F04198461746C2
:101700000E460446069D27E0681C25D02DB1FFF744
:10171000B5FAA0EB0800A8421ED920680C3050E8AA
:10172000001F21F4D07140E80012002AF5D1206892
:10173000143050E8001F21F0010140E80012002A97
:10174000F5D1202084F83D0084F83E00002084F884
:101750003C000320BDE8F0812068006836EA000004
:1017600004D00020B842CFD00020F3E70120F9E7F1
:10177000FEE70907090E002804DB00F1E02080F8ED
:101780000014704700F00F0000F1E02080F8141DF5
:10179000704700001CB5FFF77FFAFFF7D5FEFFF793
:1017A000A7FEFFF775FE1A4818490C2201604FF496
:1017B000E131416000218160C160C0E904128161B2
:1017C000C161FFF7A3FD08B172B6FEE74FF4FA76E8
:1017D0004FF6FF740A253046FFF724F9012108204F
:1017E000FEF730FE010A8DF800108DF80100234647
:1017F000022269460648FFF7F1FD8DF804502346A2
:10180000012201A90248FFF7E9FDE4E700140140C5
:10181000580000204FF04070E1EE100A70470000C1
:101820000000000000000102030406070809000090
:101830000000010203040000581800080000002006
:1018400010000000E80100086818000810000020DF
:10185000F006000004020008010000001000000073
:08186000000000000024F40068
:04000005080001AD41
:00000001FF
